:020000040800F2
:10000000B8150020A10100083B400008D52F0008CA
:10001000113B0008D50B0008354C0008000000001B
:100020000000000000000000000000004141000846
:100030005D0E000800000000B940000819450008E6
:10004000BB010008BB010008BB010008BB010008A0
:10005000BB010008BB010008BB010008BB01000890
:10006000BB010008BB010008BB010008BB01000880
:10007000BB010008BB010008BB010008BB01000870
:10008000BB010008BB010008BB010008BB01000860
:10009000BB010008BB010008BB010008BB01000850
:1000A000BB010008BB010008BB010008BB01000840
:1000B000BB010008BB010008BB010008BB01000830
:1000C000BB010008BB010008BB010008BB01000820
:1000D000BB010008814B00088D4B0008BB010008E4
:1000E000BB010008BB010008BB010008BB01000800
:1000F000BB010008BB010008BB010008BB010008F0
:10010000BB010008BB010008BB010008BB010008DF
:10011000BB010008BB0100082D450008BB01000819
:10012000BB010008110D0008BB010008BB0100085D
:10013000350D0008BB010008BB010008BB01000829
:10014000BB010008BB010008BB010008BB0100089F
:10015000BB010008BB010008BB010008E14B00081F
:10016000BB010008BB010008BB010008BB0100087F
:10017000BB010008BB010008BB0100080000000033
:10018000BB010008BB010008DFF810D000F006FC3E
:10019000004800479DA20008AFF30080B81500207A
:1001A0000648804706480047FEE7FEE7FEE7FEE711
:1001B000FEE7FEE7FEE7FEE7FEE7FEE71D45000877
:1001C000890100082DE9F05F0546002092469B4614
:1001D00088460646814640241BE02846414647465D
:1001E000224600F0BCFA53465A46C01A914110D339
:1001F00011461846224600F0A3FA2D1A67EB0108B3
:100200004F4622460120002100F09AFA17EB000920
:100210004E41201EA4F10104DFDC484631462A4647
:100220004346BDE8F09F2DE9F0410024061B25461A
:1002300071F1000605DA01240027D0EB070067EB17
:100240000101161E73F1000605DA0027D2EB070242
:10025000012567EB0303FFF7B5FF86460E461746F9
:100260009C46AC4204D00025D0EB050E65EB0106A0
:1002700024B10020D2EB000760EB030C704631463E
:100280003A466346BDE8F081D2B201E000F8012BA6
:10029000491EFBD270470022F6E710B513460A4606
:1002A00004461946FFF7F0FF204610BD30B504465E
:1002B0000020034600E05B1C934203D2E05CCD5C6F
:1002C000401BF8D030BD2DE9FE4F804681EA030087
:1002D000C00F0C46009021F0004123F00045B8EB20
:1002E0000200A94105D24046214690461C460B46D5
:1002F000024623F00040104347D0270DC7F30A0001
:10030000C3F30A510290401A019040286BDAC3F3FC
:10031000130040F4801B0098924620B10023D2EBDA
:10032000030A63EB0B0B01985946C0F1400250469B
:1003300000F006FA06460D4650465946019A00F06E
:100340001EFA10EB08006141002487EA115284EA8A
:10035000E7731A4340D0009A62B3019A012A4FEA28
:10036000075215DC001B61EB02014FF0004202EA6C
:100370000752CDE90042001C41F5801132462B4660
:1003800000F055FA03B0BDE8F08F40462146F9E78A
:10039000001B61EB0201001C41F5801300185B415A
:1003A0002018A2F5001747EB030140EAD570B619F3
:1003B0006D4111E06D084FEA360645EAC0754FEA17
:1003C0000752001B61EB0201001C41F58011490836
:1003D0004FEA30000019514132462B4603B0BDE8C8
:1003E000F04F00F015BA0098012240000023D0EB36
:1003F000020263EBE073009821464FEAE074B8EB29
:10040000000061EB0401E9E783F000435BE781F062
:10041000004158E72DE9FE4F81EA030404F000444F
:1004200021F0004100944FF0000B23F0004350EA0C
:1004300001045ED052EA03045BD0C3F30A54C1F353
:100440000A552C44A4F2F3340194A0FB0254C1F3E6
:10045000130141F48011C3F3130343F4801301FB30
:10046000024400FB034E840A970A44EA815447EA97
:100470008357A4FB076802958D0A05FB07854FEAA1
:10048000932C04FB0C542705029D4FEA065847EABB
:100490001637B5EB08056EEB070C870E920E47EA90
:1004A000811742EA8312A7FB0201B6EB0B0164EB52
:1004B00000042B0D43EA0C335E1844EB1C50DA4663
:1004C0005146E7FB0201C5F313044FEA0B3343EA3D
:1004D00014534FEA0432019C43EA0603A4F10C04CE
:1004E0000294009CCDE900B400F0A1F903B0BDE88E
:1004F000F08F00200146F9E72DE9F04D81EA030471
:1005000004F0004B21F0004514464FF0000A23F0A0
:10051000004150EA050220D054EA01021DD0C5F383
:100520000A570246C5F31303C1F31300C1F30A5679
:1005300040F4801543F48013A7EB0608101BD64641
:1005400008F2FD3873EB050002D308F1010801E061
:1005500092185B41B8F1000F03DA00200146BDE8B4
:10056000F08D00204FF48011064684460EE0171BE4
:1005700073EB050705D3121B63EB050306434CEA37
:10058000010C49084FEA300092185B4150EA01071C
:10059000EDD152EA030012D082EA040083EA050199
:1005A000084305D0101BAB4106D20122002306E010
:1005B00000224FF0004302E06FF0010253101AEBEB
:1005C00006004CEB085110EB0A0041EB0B01BDE8B3
:1005D000F04D00F01DB90EB5C10F80EAE07008447F
:1005E000CA07002140F233438DE80E000A460B464D
:1005F00000F01DF903B000BD0EB540F23341029189
:100600000021CDE900110A460B4600F010F903B0B5
:1006100000BD70B5C1F30A5201F000450024C1F3DA
:10062000130140F2FF3341F480119A4201DA0020B5
:1006300070BD40F233439A42A2F2334203DC52428D
:1006400000F08DF800E090402C43F1D0404270BDA6
:10065000C1F30A5210B5C1F3130140F2FF3341F464
:1006600080119A4201DA002010BD40F233439A42D1
:10067000A2F2334203DC524200F071F810BD904008
:1006800010BD00F0004230F000400AD0C10D01F56D
:100690006071C0F3160042EA0151C20840071143DD
:1006A000704700200146704730B5041E71F1000408
:1006B00004DB4FF00044404264EB0101141E73F16F
:1006C000000405DB1C464FF00043524263EB040379
:1006D0008B4208BF824230BD30B5041E71F1000468
:1006E00004DB4FF00044404264EB0101141E73F13F
:1006F000000405DB1C464FF00043524263EB040349
:10070000994208BF904230BD01F0004330B421F05F
:10071000004150EA010206D00A0DA2F56072C1F351
:100720001301002A02DC30BC00207047440F44EA69
:10073000C104C100E01830BC00EBC25000F031B879
:10074000202A04DB203A00FA02F100207047914091
:10075000C2F1200320FA03F3194390407047202A86
:1007600004DB203A21FA02F00021704721FA02F35B
:10077000D040C2F120029140084319467047202A18
:1007800006DBCB17203A41FA02F043EAE07306E0B9
:1007900041FA02F3D040C2F12002914008431946C9
:1007A00070470029A8BF7047401C490008BF20F0CF
:1007B0000100704710B4B0FA80FC00FA0CF050EA67
:1007C000010404BF10BC704749B1CCF1200421FAE8
:1007D00004F411FA0CF118BF012121430843A3EBE3
:1007E0000C01CB1D4FEA00614FEA102042BF0020F0
:1007F00010BC704700EBC35010440029A4BF10BCCC
:100800007047401C490008BF20F0010010BC704731
:1008100010B5141E73F1000408DA401C41F1000108
:1008200092185B411A4301D120F0010010BD2DE95F
:10083000F04D92469B4611B1B1FA81F202E0B0FA56
:1008400080F220329046FFF77BFF04460F4640EAD5
:100850000A0041EA0B0153465A46084313D0114699
:1008600053EA010019D0C8F140025046FFF777FF64
:1008700005460E46504659464246FFF761FF08437B
:1008800005D0012004E020463946BDE8F08D002067
:10089000054346EAE0762C4337430A986305E40AA9
:1008A000A0EB08000022FD0A44EA47540A3002D5B2
:1008B00000200146E9E7010510196941DDE9084515
:1008C00000196941BDE8F04DA2E770B521F0004381
:1008D00003430CD0C1F30A550024D5EB040564EBA7
:1008E0000403D617AD1AB34102DB0020014670BDE8
:1008F000201841EB025170BD2DE9F04D00231A463E
:100900001B1A8A4103DB00200146BDE8F08DC1F3CC
:100910000A52C1F3130141F480154FF0000BD107C7
:1009200002D100186D41521E0027044640F2FF110B
:10093000384601EB620A3E468046024600204FF4EC
:100940008011FFF70CFFC2197141BB1846EB010083
:10095000B4EB030C75EB000C04D3E41A65EB000553
:1009600017460E46241908F101006D4180463428CF
:10097000E3DDF91946EB0600091BA84103D24FF04D
:10098000FF32134601E0002213461BEB070046EB43
:100990000A51BDE8F04DFFF73BBF0000064C074D84
:1009A00006E0E06840F0010394E80700984710343F
:1009B000AC42F6D3FFF7ECFB40D8000860D8000843
:1009C00070B58C1810F8015B15F0070301D110F811
:1009D000013B2A1106D110F8012B03E010F8016B3E
:1009E00001F8016B5B1EF9D12B0705D40023521EC1
:1009F0000DD401F8013BFAE710F8013BCB1A921C29
:100A000003E013F8015B01F8015B521EF9D5A14226
:100A1000D8D3002070BD10B50146886B026C12F06F
:100A2000500F05D0026CD20626D500F0C7FA10BDD3
:100A3000016C41F40071016401688A6812F0405F42
:100A400017D1027EAAB9CA6A12F4700F02D08A685E
:100A500052050ED44A6822F020024A60016C21F44B
:100A600080710164016CC90403D4016C41F001017F
:100A7000016400F0A1FA10BD806BC26CBDE81040AB
:100A80000846104710B5806B40210164416C41F06D
:100A90000401416400F092FA10BD10B5806B00F0C3
:100AA0008CFA10BD4A494A6822F440324A604A68CA
:100AB00043681A434A6001684A6822F480724A60B7
:100AC00001684A68036942EA03224A6001684A6889
:100AD00022F040724A6001684A6883681A434A609B
:100AE00001688A6822F400628A6001688A68C368C3
:100AF0001A438A60816A6FF07062D14214D0016833
:100B00008A6822F070628A6001688A68836A1A4380
:100B10008A6001688A6822F040528A6001688A68A7
:100B2000C36A1A438A6009E001688A6822F0706229
:100B30008A6001688A6822F040528A6001688A6887
:100B400022F002028A6001688A68037E42EA430258
:100B50008A6090F8201089B101684A6842F4006206
:100B60004A6001684A6822F460424A6001684B6842
:100B7000426A521E43EA42324A6004E001684A680F
:100B800022F400624A600168CA6A22F47002CA62F2
:100B90000168CB6A828B521E43EA0252CA62016824
:100BA0008A6822F400728A6001688A6890F830309E
:100BB00042EA43228A6001688A6822F480628A607D
:100BC00001688A68406942EA8020886070470000B6
:100BD00000230140FEE710B504462DED028BF0EE38
:100BE000001A94ED070A94ED061AF8EE400AB8EEE2
:100BF000411A51EE210AB8EE401A80EE810A10EE39
:100C0000100AFFF73EFD41EC180B606AFFF739FD53
:100C100081F0004153EC182BFFF7FCFBFFF774FD4C
:100C200000EE100A04F0FCFCF7EE000A30EE201A89
:100C3000D4ED020A94ED000A70EEC01AC1EE810AEA
:100C400030EE200A84ED010AD4ED040AB4EEE00A85
:100C5000F1EE10FA01DDC4ED010AD4ED010A94EDC4
:100C6000050AF4EEC00AF1EE10FA01D284ED010A91
:100C7000BDEC028B10BDD0ED020A90ED000A30EE03
:100C8000C01AD0ED070AF8EE601AC1EE210A90ED05
:100C9000061AB8EE411A00EE810A80ED010AD0ED85
:100CA000040AB4EEE00AF1EE10FA01DDC0ED010A2B
:100CB000D0ED010A90ED050AF4EEC00AF1EE10FA4B
:100CC00001D280ED010A704770B5049D084C0126E1
:100CD00026706070A170E270237165710822214650
:100CE000012006F095FEA4F10A01487070BD0000D5
:100CF0002A01002010B50449012006F065FE0249D2
:100D0000891E087010BD000022010020FFF7F2BF0D
:100D100006480068000508D50549012048700348C9
:100D20000830016841F400610160704700640240CE
:100D30001300002006480068800608D505490120F8
:100D4000087003480830016841F0200101607047D5
:100D500004640240130000200168CAB2103A18234C
:100D6000B2FBF3F2064B9B5CC3656FF30901032AE8
:100D700002D9091D816500E08165806D7047000022
:100D80001AD5000810B5014600208A6A8B694FF019
:100D9000C074002B0ED0B3F5005F1AD062B3012AE5
:100DA0002AD0022A28D0032A03D1C96AC90100D552
:100DB000012010BD1AB1012A06D0022AF9D1C96A50
:100DC000C901F6D5012010BDC96AA142FBD101209D
:100DD00010BD52B1012A0AD0022A06D0032AF7D147
:100DE000C96AA142F4D1012010BD012010BDC96A19
:100DF000C901FBD5012010BD012010BD30B504682C
:100E0000256825F480252560046863608368402B8D
:100E100004D0036899600068C26030BD03689A60BE
:100E20000068C16030BD00000B48002101604160D6
:100E30008160C1600161816240F8501C40F84C1C27
:100E400040F8481C40F8441CC1620163416381635F
:100E5000C163016470470000F00900207047000082
:100E600078B50024009490F83C20012A19D0012282
:100E700080F83C200A680725092A14D90368DE682F
:100E80000A3A02EB42029540AE43DE600A788B6874
:100E90000A3A02EB420293400268D5682B43D360C2
:100EA00011E0022078BD03681E6902EB4202954002
:100EB000AE431E610A788B6802EB420293400268DF
:100EC00015692B4313614A681F25072A13D203684B
:100ED0005E6B521E02EB82029540AE435E630A884F
:100EE00093B20A79521E02EB820293400268556B5C
:100EF0002B43536328E00D2A13D203681E6BD21FC5
:100F000002EB82029540AE431E630A8893B20A79CF
:100F1000D21F02EB820293400268156B2B431363CE
:100F200012E00368DE6A0D3A02EB82029540AE439E
:100F3000DE620A8893B20A790D3A02EB820293408C
:100F40000268D56A2B43D362174A184B05689D4245
:100F500006D10D68122D03D1556845F48005556002
:100F600005689D421BD10B68102B01D0112B16D1A7
:100F7000536843F400035360096810290FD10C49EA
:100F80000C4A0968B1FBF2F101EB810149000091C3
:100F900002E00099491E009100990029F9D180F8DA
:100FA0003C40002078BD00000023014000200140AB
:100FB0000000002040420F0070477047704770B536
:100FC00004460026002C03D0206C002510B107E059
:100FD000012070BD204600F01CF8656484F83C5088
:100FE000206CC00610D4206C20F4885040F0020021
:100FF00020642046FFF756FD6564206C20F0020057
:1010000040F00100206400E0012684F83C503046A6
:1010100070BD7047F8B504460023009394F83C0077
:10102000012807D0012084F83C0020688568ED077E
:1010300002D014E00220F8BD856845F00105856006
:101040004648474D0068B0FBF5F000EB40000090CB
:1010500002E00098401E009000980028F9D1206816
:101060008568ED0503D5856825F480758560206861
:101070008568ED0768D0256C40F20166B54345F4FC
:10108000807525644068400505D5206C20F400502B
:1010900040F480502064206CC00404D5606C20F0C3
:1010A0000600606400E0636484F83C302D4EA36B5E
:1010B0002D48D863A36B2D481864A36B2C48D864C3
:1010C00023686FF0220018602068436843F0806353
:1010D00043602068836843F480738360206813460C
:1010E0004C300A46A56B0146284600F012FC706899
:1010F0002049C00607D0206888422DD1816811F0B0
:10110000405F1CD028E0206888420FD01A4A9042E5
:1011100003D1D1F80423D20608D0184A90421BD13B
:10112000D1F8041301F01F01102915D2816811F0C4
:10113000405F11D1816841F0804181600CE081689D
:1011400041F08041816007E0206C40F01000206495
:10115000606C40F0010060640020F8BD00000020D9
:1011600040420F0000230140170A00089B0A0008B4
:10117000850A0008002001400021014000220140B2
:1011800090F82020012A07D0022A05D0416A41F4B4
:101190008021416201207047CA0704D00268936829
:1011A00043F0800393608A0704D50268936843F490
:1011B00000439360490704D50068816841F4000149
:1011C000816000207047F0B590F820500468A46852
:1011D000012D07D0022D05D0416A41F480214162E2
:1011E0000120F0BD04F0806504F00066354301D1B4
:1011F000E5005BD5C4F30164022C05D9416A41F4D2
:10120000000141620120F0BD0125A5401D608B68F1
:101210004FF4C0759BB1CE6805EB041733434E689D
:1012200043EAC6030668F3514FF4C273076803EB41
:1012300004130E69FE50097D012909D00DE00E88C6
:10124000CB6805EB041743EA46530668F351EBE716
:101250000168CE5846F48076CE501179D37956790C
:1012600041EA036193791B0443EA062319434FF4CF
:10127000C676036806EB041699511178D37841EAD3
:101280000361937852781B0443EA022211434FF41E
:10129000C473026803EB0413D150006805EB04111A
:1012A000425842F0010242500020F0BD416A41F430
:1012B000001141620120F0BD10B590F82020012AF4
:1012C00007D0022A05D0416A41F480214162012001
:1012D00010BD3C4800F50070026842F00102026057
:1012E000026822F47C52026002684B6A42EA0322DE
:1012F00002600A7D02F01F0301229A40C3699343F2
:10130000C361A0F50070CB69B3B9D0F80C32934338
:10131000C0F80C328C894B6864F31F434C6900EBB6
:10132000C404C4F840320C890B6864F31F434C6951
:1013300000EBC404C4F84432CB69012B16D1D0F8B9
:101340000C321343C0F80C320C884B6864F31F4313
:101350004C6900EBC404C4F840320C89CB6864F3D8
:101360001F434C6900EBC404C4F844328B697BB161
:10137000D0F804321343C0F804320B6973B1D0F8CB
:1013800014321343C0F81432096A01290CD010E05A
:10139000D0F804329343C0F80432EEE7D0F81432A8
:1013A0009343C0F81432EFE7D0F81C121143C0F891
:1013B0001C12D0F8001221F00101C0F80012002028
:1013C00010BD0000006400400246002092F820306A
:1013D000012B01D0022B04D121B11068006900F06B
:1013E000030070471068C06800F00300704730B514
:1013F00090F82040012C07D0022C05D0416A41F41E
:1014000080214162012030BD21B104682469A40714
:101410005FD003E00468E468A40754D04FF4D874A4
:10142000056804EB01142D5905F004059560F5B32A
:1014300005682D59ED08556005682C5904F0020423
:10144000D4604FF4DA74056804EB01142D5905F0EB
:101450000F05156105682D59C5F3072595610568C8
:101460002C59240C54614FF4DC72046802EB011215
:10147000A4581C700468A458240A5C700468A4581A
:10148000240C9C700468A258120EDA704FF4DE72BD
:10149000046802EB0112A4581C710468A458240AC1
:1014A0005C710468A458240C9C71046800E016E088
:1014B000A258120EDA71B9B10068016941F0200139
:1014C0000161002030BD416A41F4001141620120F8
:1014D00030BD416A41F400114162012030BD056810
:1014E0002D596D0D1560A7E70068C16841F0200116
:1014F000C160E6E70246002092F82010012901D0E1
:1015000002290CD111688A68520100D501208A682D
:10151000120100D5401C8968C90000D5401C7047E5
:1015200070B50446002C03D094F8200010B104E0FC
:10153000012070BD204600F09DF82068016821F070
:101540000201016000F020FB054605260CE000F0DA
:101550001BFB401B0A2807D9606A40F40030606218
:1015600084F82060012070BD206840688007EED4B8
:101570002068016841F00101016000F005FB0546AB
:101580000CE000F001FB401B0A2807D9606A40F418
:101590000030606284F82060012070BD20684068DF
:1015A000C007EED0207E01283FD02068016821F0DE
:1015B00080010160607E01283DD02068016821F033
:1015C00040010160A07E01283BD02068016821F025
:1015D00020010160E07E012839D02068016841F0D7
:1015E00010010160207F012837D02068016821F0B8
:1015F00008010160607F012835D02068016821F072
:1016000004010160D4E902010843D4E90412114342
:1016100008436168491E08432168C8610020606270
:10162000012084F82000002070BD2068016841F08E
:1016300080010160BEE72068016841F0400101605F
:10164000C0E72068016841F020010160C2E720681E
:10165000016821F010010160C4E72068016841F0D1
:1016600008010160C6E72068016841F004010160DB
:10167000C8E7000030B587B00068194988422CD10E
:101680001848016841F008010160016801F0080193
:101690000191016841F008010160006800F0080054
:1016A000019010481030016841F00071016000683D
:1016B00000F0007001900220029003900124049435
:1016C000059009200690084D02A9284600F058F917
:1016D000029402A9284600F053F907B030BD00007B
:1016E0000064004030380240000C024070B50446EF
:1016F00094F82000012805D0606A40F40020606260
:10170000012070BD022084F820002068016821F0CB
:101710000101016000F038FA05460DE000F034FAEE
:10172000401B0A2808D9606A40F400306062052036
:1017300084F82000012070BD20684068C007EDD10A
:10174000606270BD2DE9F0410446A76D00F01CFAFF
:10175000054694F835000026022806D080206065F2
:1017600084F834600120BDE8F0812068016821F030
:10177000160101602068416921F080014161206CFF
:1017800008B9A06C20B12068016821F0080101604F
:101790002068016821F0010101600BE000F0F4F91C
:1017A000401B052806D920203434206226700320EF
:1017B0006070D8E720680068C007EFD134343F205C
:1017C00094F828108840B8602670012060700020CE
:1017D000C9E790F83510022903D080214165012026
:1017E0007047052180F835100068016821F001017B
:1017F00001600020704700002DE9F041044600F030
:10180000C3F905465CB1002684F83460022084F8F0
:1018100035002068016821F0010101600DE0012020
:10182000BDE8F08100F0B0F9401B052805D9202063
:101830006065032084F83500F2E720680068C0077F
:10184000F0D121680A6820480240D4E90103184316
:10185000D4E903352B43184363691843A36918433C
:10186000E3691843236A18431043626A042A03D1C8
:10187000D4E90B231A43104308602068406920F024
:101880000700656A29460543012704290DD1A06A8E
:101890000543E06A48B12046FFF774FA28B14020BA
:1018A000606584F835700120BAE7206845612046FC
:1018B000FFF752FA94F85C203F2191408160666501
:1018C00084F835700020ABE73F8010F070B5044617
:1018D000002594F8340001280CD0012084F834004D
:1018E00094F835600020012E06D084F834000225DB
:1018F000284670BD022070BD022684F83560606500
:101900002046FFF77BFA2068016841F00101016081
:10191000EEE72DE9F04104460025A66D94F8340069
:1019200001280DD0012084F8340094F8357000208F
:10193000012F07D084F8340002252846BDE8F08145
:101940000220FBE7022784F8357060652046FFF728
:1019500055FA94F85C103F208840B0602068016818
:1019600041F016010160206C20B12068016841F04F
:10197000080101602068016841F001010160DCE7B5
:101980002DE9F84F0022DFF89C914FF0010809F192
:10199000040A03274FF00F0C0AF1040B08FA02F5B2
:1019A0000B682B40AB4272D10C7904F00304012C7C
:1019B00001D0022C15D18668540007FA04FE26EAED
:1019C0000E06D1F80CE00EFA04FE4EEA060EC0F840
:1019D00008E04468AC430D79C5F3001595402543F4
:1019E00045600C79E443A40708D0C568540007FAA1
:1019F00004F6B5438E68A6402E43C6600C7904F009
:101A00000304022C11D1D40800EB8406356A540774
:101A1000E40E0CFA04FE25EA0E05D1F810E00EFAE9
:101A200004FE4EEA050EC6F820E00568540007FAE9
:101A300004F6B5430E7906F00306A6402E43066071
:101A40004C68E40067D5384C256845F4804525602E
:101A5000246804F480440094344C22F003052E19C9
:101A6000D6F8085894074FEA147E0CFA0EF4A543F2
:101A70002F4CA04201D1002424E02E4CA04201D1E1
:101A800001241FE02C4CA04202D102241AE042E0C3
:101A90002A4CA04201D1032414E0294CA04201D1D8
:101AA00004240FE0274CA04201D105240AE0264C73
:101AB000A04201D1062405E0244CA04201D1072414
:101AC00000E0082404FA0EF42C43C6F80848D9F8BC
:101AD00000409C434D68ED0300D51C43C9F800400D
:101AE000DAF800409C434D68AD0300D51C43CAF8AA
:101AF0000040DBF800409C434D68ED0200D51C43DC
:101B0000CBF80040074D0C352C689C434E68B6025C
:101B100000D51C432C60521C102AFFF43FAFBDE8D7
:101B2000F88F0000003C0140443802400030014082
:101B3000000002400004024000080240000C024085
:101B4000001002400014024000180240001C024035
:101B50000069084201D001207047002070474269A7
:101B600021EA02030A4043EA024181617047002AE8
:101B700001D08161704709048161704701480068A4
:101B8000000C7047002004E00148806870470000A6
:101B90003401002070B50446002C11D021684CF6A9
:101BA000CC400860216845F255500860D4E9001027
:101BB00048602168A0688860FFF7E6FF05460CE0F2
:101BC000012070BDFFF7E0FF401B302805D92068D9
:101BD000C068800701D0032070BD2068C0688007FE
:101BE000F0D121684AF6AA200860002070BD006884
:101BF0004AF6AA210160002070470000024881686F
:101C000002781144816070473401002010B5094802
:101C1000016841F400710160016841F48061016074
:101C2000032000F059F80F2000F006F800F026F825
:101C3000002010BD003C024070B504460D4D4FF42D
:101C40007A712878B1FBF0F00B490968B1FBF0F02C
:101C500000F034FB08B1012070BD102C07D2002227
:101C60002146501E00F018F86C60002070BD012065
:101C700070BD0000340100200000002070470028E3
:101C800009DB00F01F02012191404009800000F1B2
:101C9000E020C0F800117047F0B40D460D4B1B68F2
:101CA000C3F30223C3F10704042C00D90424191D33
:101CB000072901D2002300E0DB1E012606FA04F109
:101CC000491E294099409E40761E16403143F0BC83
:101CD00003F013B80CED00E000F00701054A1068AE
:101CE0004FF6FF03184040EA012003490843106003
:101CF000704700000CED00E00000FA052DE9F04708
:101D000004460D46002C13D0DFF82891D9F80000C6
:101D1000EFB200F00700A8420CD289F80070D9F8A1
:101D2000000000F00700A84204D00120BDE8F087C1
:101D30000120FBE72068404E810712D5400703D5FC
:101D4000306840F4E05030602078000703D53068F8
:101D500040F4604030603068A16820F0F000084333
:101D600030602078C00731D03349606808390128D5
:101D700008D002280BD0032809D0096889070BD4A2
:101D80000120D3E70968890306D40120CEE709685A
:101D9000890101D40120C9E7316821F00301014321
:101DA0003160FFF7F1FE804641F2883A07E0FFF725
:101DB000EBFEA0EB0800504501D90320B6E73068E0
:101DC000616800F00C00B0EB810FF0D1D9F8000091
:101DD00000F00700A84209D989F80070D9F800007E
:101DE00000F00700A84201D001209FE720784007BB
:101DF00005D53068E16820F4E05008433060207871
:101E0000000706D53068216920F4604040EAC1002F
:101E1000306000F03FF83168084AC1F30311515CAB
:101E2000C8400749086007480068FFF705FF002021
:101E30007CE70000003C024008380240BAC40008B9
:101E400000000020380100200148006870470000B1
:101E50000000002000B5FFF7F7FF04490968044AB5
:101E6000C1F38221515CC84000BD00000838024027
:101E7000CAC4000800B5FFF7E7FF04490968044A2F
:101E8000C1F34231515CC84000BD00000838024037
:101E9000CAC4000810B51748006810F00C011648B5
:101EA00016D04310042912D0082911D1114C241F37
:101EB000216801F03F02216849020AD52068C0F379
:101EC0008810A0FB03010023FEF77CF909E0184607
:101ED00010BD21680023C1F38811A1FB0001FEF7AA
:101EE00071F92168C1F30141491C4900B0FBF1F0CF
:101EF00010BD0000083802400024F4002DE9F84F1E
:101F00000446002C13D02078DFF8A083C007A8F186
:101F1000040556D008F104000168C1F381010129CC
:101F20000CD00068C0F38100022803D00DE001202E
:101F3000BDE8F88FD8F80000400206D52868800375
:101F40003FD5606870BB0120F2E76068B0F5803F64
:101F500010D0B0F5A02F12D0286820F4803028606F
:101F6000286820F4802028606068E0B1FFF70CFE4C
:101F7000064614E0286840F480302860F4E72868BA
:101F800040F480202860286840F480302860EBE727
:101F9000FFF7FAFD801B642801D90320C8E72868F1
:101FA0008003F5D50DE0FFF7EFFD064606E0FFF7ED
:101FB000EBFD801B642801D90320B9E72868800362
:101FC000F5D42078BA4F80074FF0000948D5B748BC
:101FD000001D016811F00C0F08D00068C0F38100EB
:101FE000022813D1D8F8000040020FD428688007D7
:101FF00004D5E068012801D0012099E7286821690B
:1020000020F0F80040EAC100286029E0E068B8B19B
:1020100001203860FFF7B8FD064606E0FFF7B4FD83
:10202000801B022801D9032082E728688007F5D5A4
:102030002868216920F0F80040EAC10028600FE01C
:10204000C7F80090FFF7A0FD064606E0FFF79CFDED
:10205000801B022801D903206AE728688007F5D48D
:102060002078000729D5DFF844A2924861690AF177
:10207000700A89B101210160FFF786FD064606E07E
:10208000FFF782FD801B022801D9032050E7DAF810
:1020900000008007F4D510E0C0F80090FFF774FD51
:1020A000064606E0FFF770FD801B022801D90320D9
:1020B0003EE7DAF800008007F4D42078400778D5AE
:1020C0004FF0000A79483C300068C0000BD47748D4
:1020D0003C30016841F080510160006800F08050A0
:1020E00000904FF0010ADFF8D0B1DBF80000C00526
:1020F00014D4DBF8000040F48070CBF80000FFF748
:1021000043FD064606E0FFF73FFD801B022801D98C
:1021100003200DE7DBF80000C005F4D5634EA0688E
:102120006C3601280FD0052812D0306820F001004D
:102130003060306820F004003060A068F8B1FFF72C
:1021400023FD834617E0306840F001003060F4E77B
:10215000306840F004003060306840F001003060CA
:10216000EBE7FFF711FDA0EB0B0141F28830814254
:1021700001D90320DCE630688007F2D510E0FFF7D4
:1021800003FD834609E0FFF7FFFCA0EB0B0141F2E2
:102190008830814201D90320CAE630688007F2D432
:1021A000BAF1010F05D141483C30016821F080515E
:1021B0000160A069C0B33D49091D09684FF0FF36B1
:1021C000C1F38101022946D0022805D0C7F86090EA
:1021D000FFF7DAFC04463AE0C7F86090FFF7D4FC5A
:1021E000814607E0FFF7D0FCA0EB0900022801D9E7
:1021F00003209DE628688001F4D4D4E90701084350
:10220000616AA26A890106EB520241EA024108436F
:1022100094F82C1040EA0160C8F8000001203866EC
:10222000FFF7B2FC044607E03DE0FFF7ADFC001B02
:10223000022801D903207BE628688001F5D532E029
:10224000FFF7A2FC001B022801D9032070E62868D2
:102250008001F5D427E0012823D0D8F80000E269F6
:1022600000F4800191421AD1226A00F03F019142AC
:1022700015D147F6C071626A0140B1EB821F0ED1E1
:10228000A26A00F4403106EB5202B1EB024F06D1D4
:1022900094F82C1000F07060B0EB016F03D00120B7
:1022A00046E6012044E6002042E6000004380240F1
:1022B00000004742800E47420070004010B5401EAB
:1022C000B0F1807F01D3012010BD4FF0E0246061A8
:1022D0000F21601702F011FD0020A061072020618E
:1022E000002010BD7047704710B590F83C20012ABF
:1022F00022D0012280F83C20CA6800238C6822F496
:10230000407222434C6822F4806222430C6822F41B
:10231000006222430C6922F4805222434C6922F469
:1023200000522243C96922F480420A4301684A6488
:1023300080F83C30002010BD022010BD10B50446CE
:10234000002909D004290AD008290BD094F84500A7
:1023500001280AD0012010BD94F84200F8E794F853
:102360004300F5E794F84400F2E7022089B304291A
:1023700033D0082934D084F845000422206802F0C4
:102380004EF92068416C41F40041416419492068CC
:10239000884214D0B0F1804F11D0174988420ED036
:1023A000164988420BD01649884208D01549884200
:1023B00005D01549884202D01449884213D181685A
:1023C00001F00701062912D0016841F00101016006
:1023D0000DE0FFE784F84200CFE784F84300CCE744
:1023E00084F84400C9E7016841F001010160002060
:1023F00010BD000000000140000400400008004043
:10240000000C004000040140004001400018004062
:1024100010B50446002C03D094F83D0010B107E03D
:10242000012010BD002084F83C00204600F016F882
:10243000022084F83D00211D206802F07DF8012073
:102440003D3460726070A070E07020716071A071A6
:10245000E07120722070002010BD000008B50068F7
:102460000B49884212D10B48016841F0100101600C
:10247000006800F010000090012211463620FFF79E
:102480000BFCBDE808403620FFF7F9BB08BD000093
:10249000001000404038024090F83D10012901D062
:1024A00001207047022180F83D100168CA6842F09F
:1024B0000102CA6000681449884214D0B0F1804F0C
:1024C00011D0124988420ED0114988420BD01149CF
:1024D000884208D01049884205D01049884202D06D
:1024E0000F49884209D1816801F00701062908D007
:1024F000016841F00101016003E0016841F0010160
:10250000016000207047000000000140000400400E
:1025100000080040000C0040000401400040014061
:1025200000180040704770B50446206801694FF0FC
:102530000005C943890716D4C168C943890712D465
:10254000E91E01610120207720688069800703D09F
:102550002046FFF7E7FF05E0204600F09BF8204605
:1025600000F0FAF9257720680169C943490718D4B2
:10257000C168C943490714D46FF004010161022006
:1025800020772068806910F4407F03D02046FFF751
:10259000C9FF05E0204600F07DF8204600F0DCF998
:1025A000257720680169C943090717D4C168C94361
:1025B000090713D46FF00801016104202077206817
:1025C000C069800703D02046FFF7ACFF05E0204636
:1025D00000F060F8204600F0BFF925772068016917
:1025E000C943C90618D4C168C943C90614D46FF0D9
:1025F00010010161082020772068C06910F4407F35
:1026000003D02046FFF78EFF05E0204600F042F899
:10261000204600F0A1F9257720680169C943C90760
:1026200008D1C168C943C90704D1891E0161204688
:1026300000F002FA20680169C943090609D4C1689B
:10264000C943090605D46FF0800101612046FFF7F8
:1026500049FE20680169C943490609D4C168C943D4
:10266000490605D46FF040010161204600F014FADC
:1026700020680169C94389060BD4C168C94389062A
:1026800007D46FF0200101612046BDE87040FFF7DC
:102690002ABE70BD704770B504460D4694F83C00E4
:1026A00001280AD0012084F83C0042B1042A1AD043
:1026B000082A2DD00C2A53D13EE0022070BD2946B5
:1026C000206801F0B9FF2068816941F0080181614B
:1026D0002068816921F004018161206881692A698B
:1026E000114381613CE02946206801F0D9FF206850
:1026F000816941F4006181612068816921F4806110
:102700008161206881692A6941EA0221816127E0AB
:102710002946206801F0FEFF2068C16941F00801E8
:10272000C1612068C16921F00401C1612068C169EB
:102730002A691143C16113E02946206802F022F89A
:102740002068C16941F40061C1612068C16921F458
:102750008061C1612068C1692A6941EA0221C161C1
:10276000002084F83C0070BD10B50446002C03D056
:1027700094F83D0010B107E0012010BD002084F85E
:102780003C00204600F016F8022084F83D00211D90
:10279000206801F0D1FE01203D3460726070A070AD
:1027A000E07020716071A071E071207220700020D3
:1027B00010BD00002DE9F04786B004465C49DFF803
:1027C00078812068DFF86CA15B4D0226012708F1B3
:1027D000100888421CD1286840F002002860286850
:1027E00000F002000090D8F8000040F00200C8F8A5
:1027F0000000D8F8000000F00200009030200190A6
:10280000029603970496059601A95046FFF7B8F87B
:102810004A49DFF82491206809F1140988421DD142
:10282000286840F001002860286800F0010000904E
:10283000D9F8000040F00100C9F80000D9F8000004
:1028400000F0010000904FF4406001900296039761
:102850000496059701A93A48FFF792F8394920688C
:1028600088421ED1286840F004002860286800F0E3
:1028700004000090D9F8000040F00200C9F8000000
:10288000D9F8000000F0020000904FF44070019071
:102890000296039704960320059001A92A48FFF7A2
:1028A0006FF82A49206888421DD1286840F0080046
:1028B0002860286800F008000090D8F8000040F078
:1028C0000400C8F80000D8F8000000F004000090F0
:1028D0004FF470400190029603970496059601A963
:1028E0001B48FFF74DF81B49206888421DD1286816
:1028F00040F002002860286800F002000090D8F83C
:10290000000040F04000C8F80000D8F8000000F0D7
:1029100040000090C8000190029603970496092099
:10292000059001A95046FFF72BF806B0BDE8F087E7
:102930000004004000040240303802400000014022
:10294000000002400004014000080240000800406E
:10295000000C0240001800407047000010B504460B
:10296000002909D004290AD008290BD094F8410085
:1029700001280AD0012010BD94F83E00F8E794F831
:102980003F00F5E794F84000F2E70220A9B30429DC
:1029900037D0082938D084F841000122206801F09E
:1029A00031FE1E4920681E4A884201D0904203D160
:1029B000436C43F4004343642068884213D0B0F171
:1029C000804F10D0174988420DD0174988420AD04D
:1029D0001649884207D0904205D01549884202D056
:1029E0001449884213D1816801F00701062912D0E9
:1029F000016841F0010101600DE0FFE784F83E004D
:102A0000CBE784F83F00C8E784F84000C5E70168D9
:102A100041F001010160002010BD000000000140F4
:102A2000000401400004004000080040000C004089
:102A3000004001400018004010B50068134988426A
:102A400022D101F0FBFA12490023012291F867001C
:102A500050B191F86500401CC0B281F865000828AB
:102A600002D301F8673F4A700A4991F867000028CD
:102A70000AD091F86500401CC0B281F865000828B2
:102A800002D301F8673F4A7010BD000000100040FB
:102A9000900E0020541000207047704770470000CF
:102AA000F8B5044622681068D168536900F00F0534
:102AB000002D08D1860606D58E0604D52046BDE831
:102AC000F84001F0FEBE0026002D60D003F00105A5
:102AD00001F490772F435AD0C20705D0CA0503D519
:102AE000226C42F001022264420705D5DA0703D0C6
:102AF000226C42F002022264820705D5DA0703D075
:102B0000226C42F004022264020707D501F0200281
:102B10002A4303D0226C42F008022264226C002A6D
:102B20002BD0800604D5880602D5204601F0C9FEC8
:102B300020684069C0F38010216C090700D408B3F5
:102B4000204601F099FE20684169490616D5416981
:102B500021F040014161A06B60B144490165A06B67
:102B6000FEF737FE002808D0A06B016D01B0BDE86C
:102B7000F04008472046FFF791FFF8BD2046FFF7D9
:102B80008DFFF8BD2046FFF789FF2664F8BD236B53
:102B9000012B58D1C30656D5CB0654D510685068C2
:102BA000009050694FF0200340062ED5A16B0868B5
:102BB000406880B20028E9D0A58D8542E6D9E0853D
:102BC000C869B0F5807F18D0D06820F48070D060DC
:102BD0002068416921F0010141612068416921F0CB
:102BE0004001416184F83E3026632068C16821F0CD
:102BF0001001C160A06BFEF7A5FDA08DE18D401A0C
:102C000081B22046FFF749FFF8BDA08DE18D401A43
:102C100081B2E08D0028F7D00029F5D0D06820F4EB
:102C20009070D0602068426922F00102426184F80D
:102C30003E3026632068C26822F01002C26020463F
:102C4000FFF72BFFF8BD020606D50A0604D520467D
:102C5000BDE8F84001F033BF4006F3D54806F1D592
:102C60002046BDE8F84001F01FBE0000694800089A
:102C700070B50446002C04D094F83D00002510B136
:102C800006E0012070BD84F83C50204600F022F898
:102C9000242084F83D002068C16821F40051C160FF
:102CA000204601F067FE2068016921F4904101612E
:102CB0002068416921F02A0141612068C16841F41E
:102CC0000051C1602564202084F83D0084F83E0056
:102CD000002070BD30B587B000681E49884237D1EA
:102CE0001D48016841F010010160006800F010000B
:102CF000019019481438016841F00201016001682F
:102D000001F002010191016841F0020101600068D7
:102D100000F0020001904020029002200390012167
:102D200004910590072406940C4D02A92846FEF74D
:102D300027FE80210291069402A92846FEF720FE74
:102D40002520FEF79CFF032211462520FEF7A4FF55
:102D500007B030BD0010014044380240000402407A
:102D60002DE9F84F04460E461546984694F83E0065
:102D7000202802D00220BDE8F88F0EB305B394F8E6
:102D80003C0001281ED0012084F83C004FF0000ACE
:102D9000C4F840A0222084F83E00C4F830A0FEF71A
:102DA000F3FE8146A585E585A0684FF48057B842BB
:102DB00001D1206940B13546002684F83CA028E0C6
:102DC0000120D8E70220D6E70025F6E74B4600228F
:102DD00020212046CDF8008001F0A0FE08B103209C
:102DE000C9E725B1A068B8421BD038B108E0206817
:102DF0004068C0F3080026F8020B07E0206980B1A4
:102E00002068406800F07F0028706D1CE08D401E37
:102E1000E085E08D0028D9D1202084F83E000020F4
:102E2000A9E7206840682870EFE790F83E30202B33
:102E300001D00220704759B152B190F83C30012BBB
:102E400008D0012380F83C300023036301F01CBE4E
:102E5000012070470220704730B40068164988424C
:102E600028D1164A5088010419D41146440409781F
:102E70004FF0000307D50A2901D053800FE040F43A
:102E8000004050800BE00D2910D00D4DC0F30D0413
:102E90002955401C80B25080C72800D9538008486B
:102EA000012230BC0549C830FFF7BFBF40F4804065
:102EB0005080F4E730BC704700100140080000204B
:102EC000440100202DE9F84304460E4615461F46EE
:102ED00094F83D00202802D00220BDE8F883C6B156
:102EE000BDB194F83C00012815D0012084F83C00C5
:102EF0004FF00009C4F84090212084F83D00FEF70F
:102F000043FE8046A584E584A068B0F5805F04D0C8
:102F100005E00120E1E70220DFE7206920B1354626
:102F2000002684F83C9013E00025FAE7434600228F
:102F300080212046009701F0F1FD08B10320CCE785
:102F40009DB1216815F8010B4860E08C401EE084BB
:102F5000E08C0028EAD14346002240212046009719
:102F600001F0DCFD40B10320B7E736F8020B216821
:102F7000C0F308004860E8E7202084F83D00002006
:102F8000ABE7704710B5124C94F8680000281ED0CB
:102F900094F86600801E81B2601C00F039F994F844
:102FA0006610621E635C895C03EB012189B2884272
:102FB00009D1617894F8D500814204D1A178032920
:102FC00001D100F051F8002004F8660FA07010BD88
:102FD00054100020FEE7000008B5FEF717FE01F0D0
:102FE0000DF80723022208214FF4A87008F0BEFA5A
:102FF000A82004F059FD4FF4E13008F025FC06F05C
:10300000EBF942F2CF01092004F092FC532140F287
:10301000CF7004F04BFC05F047FF00F057FC07F0C1
:1030200025FA00F00BF901F0D7F9002006231A0465
:103030004FF4A001009004F08FFC4FF47A7104204B
:1030400006F002F805F002FB08F00AFD03496820CB
:103050000880BDE8084002A001F014BE640A002008
:103060004552524F5200000070B5124C0126A4F197
:10307000100561792279012841EA022304D12970DF
:103080006A702B8184F8DD60022804D1A970EA708F
:103090006B8184F8DD60032804D129716A71AB81EA
:1030A00084F8DD60042804D1A971EA71EB8184F809
:1030B000DD6070BD541000202DE9F041164D2872DE
:1030C000287003206870080AA870E970100A287137
:1030D0006A710621284600F09BF8010AA971E8717F
:1030E000CD3D01220D4F160331463846FEF73FFD18
:1030F00000242819CD30012100F0ACF8641C082C04
:10310000F7DB002231463846FEF731FD012085F815
:10311000D600BDE8F081000021110020001402401B
:103120002DE9F04186B0804600253449086840F01A
:1031300020000860086800F020000090086840F057
:1031400008000860086800F008000090086840F077
:1031500008000860086800F0080000902749103156
:10316000086840F400300860086800F400300090FF
:103170002020019002240294012603960494072043
:1031800005901F4F01A93846FEF7FAFB4020019039
:1031900001A93846FEF7F4FBE70201970296039671
:1031A0000494184E01A93046FEF7EAFB174C164866
:1031B0002060C4F80480A560E5602561A5610C204D
:1031C00060612046FFF754FD2068C16821F040018E
:1031D000C1602068C16841F02001C1602620FEF76F
:1031E0004EFD032211462620FEF756FD00223946E9
:1031F0003046FEF7BCFC06B0BDE8F0813038024036
:10320000000C024000140240004400400010002066
:1032100070B5FF22FF23084D05F5807605E010F814
:10322000014B54402A5D5A40335D491E89B2F6D2A3
:1032300043EA022070BD00001AD3000810B54FF415
:10324000E130FFF76DFF0249002081F8670010BDF3
:10325000541000202DE9F04107460E4601220A4D88
:10326000140321462846FEF782FC4FF47A73324657
:1032700039460648FFF726FE21462846BDE8F041BC
:103280000022FEF774BC0000001402400010002071
:1032900070B50B4C002565600A48016821F00301F8
:1032A0000160016841F0010101602560022004F025
:1032B00007FC01206060022004F002FC656070BD24
:1032C000808242420014024010B586B00C4801686A
:1032D00041F020010160006800F020000090032010
:1032E00001900124029403940220049001A905484E
:1032F000FEF746FB04480460446006B010BD0000C1
:1033000030380240001402408082424270B50B4CBB
:10331000002565600A48016821F003010160016829
:1033200041F00101016001262660022004F0C8FB83
:103330006660022004F0C4FB656070BD808242427A
:10334000001402402DE9F047814600241548016829
:1033500021F003010160016801600025124E002781
:103360004FF00108C6F88472022004F0A9FBC6F8E9
:1033700084826006040ED6F8000208B1641CE4B230
:10338000012004F09DFB6D1CEDB2082DEAD3B9F1CC
:10339000000F04D0FFF77CFF2046BDE8F087FFF761
:1033A000B5FFF9E700140240008042422DE9F041E8
:1033B00005461448016821F003010160016841F0ED
:1033C00001010160104E4FF00008C6F8848200240D
:1033D0000127E809C6F880026806050E022004F0FD
:1033E0006FFBC6F88472022004F06AFBC6F8848280
:1033F000022004F065FB641CE4B2082CE9D3BDE8AC
:10340000F0810000001402400080424270B50B4879
:10341000016821F003010160016841F001010160D0
:10342000074C012020606060042004F049FB002567
:103430002560042004F044FB656070BD0014024068
:103440008082424210B50C48016821F003010160FE
:10345000016841F001010160084C002060602060BB
:10346000042004F02DFB012060602060BDE81040C6
:10347000042004F025BB0000001402408082424278
:1034800070B500241148016821F003010160016852
:1034900001600F4D0126C5F88062012004F010FB89
:1034A000C5F88462012004F00BFB07E0641CE4B261
:1034B000FA2C03D9FFF7C6FF012070BDD5F8000232
:1034C0000028F3D1C5F8840270BD0000001402404A
:1034D000008042424FF08042D06311647047000088
:1034E00070B58EB005460E460024274A106840F09D
:1034F00002001060106800F002000190106840F0B7
:1035000002001060106800F0020001901E4A1032A4
:10351000106840F001001060106800F00100019098
:103520004FF44060099002220A9201230B930C92FF
:103530000D9309A91548FEF723FA1C2102A8FCF7F0
:10354000AAFE134A4FF08040106056609460D56028
:103550001046FFF709F960200290039404940822B2
:1035600002A90B48FFF797F808210948FFF7F6F979
:103570000C2202A90648FFF78EF80C210448FFF739
:10358000EDF90EB070BD000030380240000402407A
:103590005002002010B504462DED028BB0EE408A9B
:1035A000F0EE608A00224FF400411748FEF7DFFA80
:1035B0009FED160B012C06D0ACB1BDEC028BBDE823
:1035C000104000F027B853EC102B51EC180BFCF70F
:1035D00021FFFDF73DF8BDEC028B80B2BDE8104045
:1035E000002104F0CDB853EC102B51EC180BFCF774
:1035F00011FFFDF72DF8BDEC028B81B2BDE8104044
:10360000002004F0BDB800000010024000000000DF
:10361000000059400021084604F0B2B870B50B4CC8
:10362000002525600A48016821F4402101600168F5
:1036300041F4802101606560022004F041FA01201C
:103640002060022004F03CFA256070BDA082404258
:103650000004024010B586B00C48016841F0020138
:103660000160006800F0020000904FF4407001908B
:103670000124029403940220049001A90448FEF757
:103680007FF904484460046006B010BD3038024041
:1036900000040240A082404270B50B4C002525601A
:1036A0000A48016821F440210160016841F4802149
:1036B000016001266660022004F002FA2660022002
:1036C00004F0FEF9256070BDA08240420004024073
:1036D0002DE9F047814600241548016821F4402176
:1036E0000160016801600025124E00274FF00108BB
:1036F000C6F8A072022004F0E3F9C6F8A0826006C2
:10370000040ED6F8240208B1641CE4B2012004F0CF
:10371000D7F96D1CEDB2082DEAD3B9F1000F04D032
:10372000FFF77CFF2046BDE8F087FFF7B5FFF9E71C
:1037300000040240008040422DE9F0410546154852
:10374000016821F440210160016841F48021016099
:10375000114E4FF00008C6F8A08200240127E809A6
:10376000C6F8A4026806050E022004F0A9F9C6F8FE
:10377000A072022004F0A4F9C6F8A082022004F08E
:103780009FF9641CE4B2082CE9D3BDE8F04100F0D5
:1037900045B80000000402400080404270B50D486A
:1037A000016821F440210160016841F48021016039
:1037B000094C012060602060042004F081F900259C
:1037C0006560042004F07CF92560BDE870400220AB
:1037D00004F076B900040240A082404210B50D48C2
:1037E000016821F440210160016841F480210160F9
:1037F000094C002020606060042004F061F9012081
:1038000020606060042004F05BF9BDE81040FFF721
:1038100043BF000000040240A082404270B5002473
:103820001148016821F440210160016801600F4DD9
:103830000126C5F8A462012004F042F9C5F8A0628F
:10384000012004F03DF907E0641CE4B2FA2C03D92E
:10385000FFF7C4FF012070BDD5F824020028F3D182
:10386000C5F8A00270BD0000000402400080404284
:1038700010B5134A111F081F06F046FD10489FEDB2
:10388000110A0C381049D0ED010A60EE800AFDEEF5
:10389000E00A10EE902A0A86D0ED020A60EE800A55
:1038A000FDEEE00A10EE902A4A86D0ED030A20EEE3
:1038B000800ABDEEC00A10EE100A888610BD000016
:1038C000140100200000C842640A002010B5FFF770
:1038D000FBFC80216B2000F0C1F8642004F0EAF8C2
:1038E00000216B2000F0BAF8032000F084F80020DB
:1038F00000F07CF8322000F09BF80021382000F026
:10390000ADF800216A2000F0A9F80021232000F082
:10391000A5F88021372000F0A1F8752000F011F8FB
:10392000682801D0012010BD01216B2000F096F81D
:1039300000216C2000F092F8322000F079F800208D
:1039400010BD10B50446FFF761FDD020FFF72EFD36
:10395000FFF796FD2046FFF729FDFFF791FDFFF7E2
:1039600055FDD120FFF722FDFFF78AFD0020FFF76C
:10397000E9FC0446FFF766FD204610BD2DE9F04145
:1039800006460F4615461C46FFF740FD7006000E22
:10399000FFF70CFDFFF774FD20B1FFF753FD012089
:1039A000BDE8F0813846FFF701FDFFF769FDFFF73D
:1039B0002DFD012000EB4600C0B2FFF7F7FCFFF73A
:1039C0005FFD08E0012D0CD00120FFF7BBFC20704B
:1039D0006D1EEDB2641C002DF4D1FFF733FD002005
:1039E000DEE70020FFF7AEFC2070F1E7C006010E15
:1039F0001C2000F033B8C006010E1B2000F02EB8CA
:103A0000BC2801D3012110E0622801D302210CE07F
:103A10002A2801D3032108E0142801D3042104E05B
:103A20000A2801D3052100E006211A2000F016B86B
:103A300010B504464FF47A70844200D90446042C31
:103A400000D20424B0FBF4F0401EC1B2192000F0F3
:103A500005F86008BDE81040FFF7D2BF70B5054615
:103A60000C46FFF7D3FCD020FFF7A0FCFFF708FDC2
:103A700018B1FFF7E7FC012070BD2846FFF796FC60
:103A8000FFF7FEFC2046FFF791FCFFF7F9FC18B1A9
:103A9000FFF7D8FC012070BDFFF7D4FC002070BDFB
:103AA0002DE9F04104460F4616461D46FFF7AEFCD1
:103AB0006006000EFFF77AFCFFF7E2FC20B1FFF78B
:103AC000C1FC0120BDE8F0813846FFF76FFCFFF72D
:103AD000D7FC00240BE0285DFFF768FCFFF7D0FC63
:103AE00018B1FFF7AFFC0120ECE7641CE4B2B4426C
:103AF000F1D3FFF7A7FC0020E4E7002804D04FF43F
:103B0000FA600146FFF7E6BC14210846FFF7E2BC65
:103B1000FEE700002DE9F0478EB007460D46142160
:103B200009A8FCF7B8FB1C2102A8FCF7B4FB002491
:103B3000504A106840F001001060106800F0010069
:103B400001904C4A143A106840F00100106010686F
:103B500000F001000190106840F001001060106852
:103B600000F001000190106840F010001060106833
:103B700000F010000190106840F010001060106814
:103B800000F010000190106840F010001060106804
:103B900000F0100001904FF40046099602220A92AC
:103BA0000B920C9201200D90DFF8CC8009A94046C1
:103BB000FDF7E6FEF0110990DFF8C0A009A9504614
:103BC000FDF7DEFE4FF08009CDF8249009A950469C
:103BD000FDF7D6FE3011099009A94046FDF7D0FE49
:103BE0007011099009A94046FDF7CAFE254A2448EC
:103BF000106055609460D76040151061C2F818904D
:103C00001046FEF7B1FD60200290049405940794DD
:103C10000894002202A91B48FEF73DFD042202A9D8
:103C20001848FEF738FD1848046044608460F110BD
:103C30000161490041614900C16101461148FEF737
:103C400053FB00210F48FEF789FE00210D48FEF7C7
:103C500075FB04210B48FEF781FE04210948FEF79D
:103C60006DFB002231464046FDF781FF0EB0BDE8F6
:103C7000F08700004438024000100240000002407B
:103C800000000140A8050020E803002030B587B0FF
:103C900004460D461C216846FCF7FDFA1B4A1A48EB
:103CA0001060556000259560D4601046FEF75CFDFD
:103CB0006020009001950220029008226946134876
:103CC000FEF7E9FC08211148FEF748FE0C22694680
:103CD0000E48FEF7E0FC0C210C48FEF73FFE0022E8
:103CE00069460A48FEF7D7FC00210848FEF736FE71
:103CF000042269460548FEF7CEFC04210348FEF77E
:103D00002DFE07B030BD0000000800400005002077
:103D100030B587B004460D461C216846FCF7BBFA57
:103D2000124A11481060556000259560D460104615
:103D3000FEF71AFD602000900195022002900022FB
:103D400069460A48FEF7A7FC00210848FEF706FE70
:103D5000042269460548FEF79EFC04210348FEF74D
:103D6000FDFD07B030BD000000040040B804002095
:103D700030B587B004460D461C216846FCF78BFA27
:103D8000124A11481060556000259560D4601046B5
:103D9000FEF7EAFC602000900195022002900822C4
:103DA00069460A48FEF777FC08210848FEF7D6FD69
:103DB0000C2269460548FEF76EFC0C210348FEF70D
:103DC000CDFD07B030BD00000004014070040020AC
:103DD0002DE9F0438DB006460D46142108A8FCF7E6
:103DE0005AFA1C2101A8FCF756FA00244C4A106824
:103DF00040F002001060106800F002000090484A95
:103E0000143A106840F004001060106800F00400DC
:103E10000090106840F001001060106800F0010090
:103E20000090106840F004001060106800F004007A
:103E30000090106840F002001060106800F002006E
:103E40000090106840F001001060106800F0010060
:103E5000009040200890022209920A920B920320BF
:103E60000C90DFF8C09008A94846FDF789FD202096
:103E700008902D4F08A93846FDF782FD4FF08008C5
:103E8000CDF8208008A94846FDF77AFD012008906A
:103E900008A92648FDF774FD264A2548106055609C
:103EA0009460D66040151061C2F818801046FEF785
:103EB0005BFC602001900394049406940794002214
:103EC00001A91C48FEF7E7FB042201A91948FEF7E7
:103ED000E2FB1948046044608460B9140161490040
:103EE00041614900C16101461248FEF7FDF9002118
:103EF0001048FEF733FD00210E48FEF71FFA04219B
:103F00000C48FEF72BFD04210A48FEF717FA0022A1
:103F100040213846FDF72BFE0DB0BDE8F0830000D0
:103F20004438024000080240000002400004024001
:103F300000040140F00500200804002030B587B0DF
:103F400004460D461C216846FCF7A5F9124A1148A3
:103F50001060556000259560D4601046FEF704FCA3
:103F600060200090019502200290002269460A48D4
:103F7000FEF791FB00210848FEF7F0FC0422694699
:103F80000548FEF788FB04210348FEF7E7FC07B06D
:103F900030BD0000001800404805002030B587B053
:103FA00004460D461C216846FCF775F9124A114873
:103FB0001060556000259560D4601046FEF7D4FB74
:103FC00060200090019502200290082269460A486C
:103FD000FEF761FB08210848FEF7C0FC0C22694689
:103FE0000548FEF758FB0C210348FEF7B7FC07B065
:103FF00030BD0000000001402804002010B553210E
:104000006320FFF787FD53216320FFF7E1FE532173
:104010006320FFF7C3FF53216320FFF7A9FE292187
:104020006320FFF775FE29216320FFF72FFE29216A
:10403000BDE810406320FFF781BF7047F0B5002056
:104040000E4C00260127211F0D7814E000EB4001E3
:1040500004EB8102137963B934F821305B1C9BB205
:1040600024F82130B2F802C0634502D324F821605D
:104070001771401CC0B2A842E8D3F0BD2C0000204C
:10408000FEF7AAFF00240B4E0027A6F1040804F057
:10409000D5FF04EB440006EB8005287910B1A86831
:1040A00080472F71641C98F80000E4B28442EED37C
:1040B0000024ECE72C0000207047000010B50446F7
:1040C0002DED028BB0EE408AF0EE608A0022402196
:1040D0001648FDF74CFD9FED160B012C06D0ACB138
:1040E000BDEC028BBDE8104000F026B853EC102B5D
:1040F00051EC180BFCF78EF9FCF7AAFABDEC028B19
:1041000080B2BDE81040002103F056BB53EC102BE9
:1041100051EC180BFCF77EF9FCF79AFABDEC028B18
:1041200081B2BDE81040002003F046BB0000024011
:1041300000000000000059400021084603F03CBB8D
:104140007047000070B5FF22FF23084D05F580760B
:1041500005E010F8014B54402A5D5A40335D491E7A
:1041600089B2F6D243EA022070BD00001AD10008DD
:1041700010B51A4C94F8680000282ED094F8660008
:10418000801E81B2601CFFF7DDFF94F86610621E8E
:10419000635C895C03EB012189B2884219D16078A4
:1041A0002178884215D1A078112812D2DFE800F0DA
:1041B0001111110911110C111111111111111111FC
:1041C0000F0000F05DF804E000F0BAF801E000F044
:1041D00007F8002004F8660FA07010BD900E0020B4
:1041E0002DE9F047244D2B79EC7803EB042082B2C3
:1041F000AE796F7906EB07201FFA80FC0020A5F24C
:104200002C480CE005EB400191F80990097A09EB84
:10421000012102EB000928F81910401C80B260450A
:10422000F0D3513515F8500C287615F84F0C6876F8
:10423000AC76EB762F776E770F4806216930FFF763
:1042400081FF010AA977E877513D0C4E0122114602
:104250003046FDF78CFC002428196930012100F05C
:10426000C9F8641CA4B2082CF6D33046BDE8F04768
:1042700000220121FDF77BBC900E002000180240B7
:104280002DE9F0412B4D2879E97800EB012087B228
:10429000A879697900EB012086B2287885F8690051
:1042A0002946032081F86A007000032481F86B001E
:1042B000002014E020493A1831F91210CA1701EB16
:1042C0001263621C2C444FEA132CD2B284F869C0EA
:1042D000531C2A44DCB282F86910401CC0B2B042C0
:1042E000E8D3144821466930FFF72CFF020A611C0D
:1042F0006319C9B283F869204A1C2944D6B281F8EF
:1043000069000E4F012211463846FDF730FC0024AB
:1043100006E028196930012100F06CF8641CE4B251
:10432000B442F6D33846BDE8F04100220121FDF742
:104330001EBC0000900E0020640A002000180240FD
:104340002DE9F041224D2879E97800EB012082B275
:10435000A879697900EB0120A5F22C4121F812001F
:10436000297885F869102B46062183F86A102C46B7
:10437000130A84F86B30234683F86C20020A83F812
:104380006D201A4682F86E0002F16900FFF7DAFE2E
:104390002246010A82F86F101146082681F8700043
:1043A0000C4F012211463846FDF7E1FB002406E0E0
:1043B00028196930012100F01DF8641CA4B2B44230
:1043C000F6D33846BDE8F04100220121FDF7CFBB0E
:1043D000900E00200018024010B54FF4165000F067
:1043E00025F8034801210170002180F8671010BDF5
:1043F000900E002070B506460D460A4C012211466B
:104400002046FDF7B4FB4FF47A732A46314606483E
:10441000FEF758FD2046BDE8704000220121FDF75F
:10442000A6BB0000001802404C0E00202DE9F04110
:1044300086B0804600253448016841F040010160A3
:10444000016801F040010091016841F04001016004
:10445000016801F040010091016841F040010160F4
:10446000006800F04000009027481430016841F0D7
:1044700020010160006800F0200000904FF48040AF
:1044800001900226029601240394049608200590C8
:104490001E4F01A93846FDF773FA6002019001A989
:1044A0003846FDF76DFA019402940394049601A92D
:1044B0003846FDF765FA174C15482060C4F80480AB
:1044C000A560E5602561A5610C2060612046FEF7CE
:1044D000CFFB2168C86820F04000C8602168C86828
:1044E00040F02000C8604720FDF7C9FB03221146B9
:1044F0004720FDF7D1FB002201213846FDF737FBAD
:1045000006B0BDE8F08100003038024000180240DB
:10451000001401404C0E0020FDF770BB02480168FA
:1045200041F470010160704788ED00E00148FDF73B
:10453000FABF0000800600202DE9F0410268264DF8
:10454000264E274FDFF89CC0274B4FF08048A842EB
:1045500009D0404507D0B04205D0B84203D06045ED
:1045600001D0984203D122F070044A682243A84245
:104570001BD0404519D0B04217D0B84215D0604585
:1045800013D0984211D0194CA0420ED0184CA04222
:104590000BD0184CA04208D0174CA04205D0174CA5
:1045A000A04202D0164CA04203D122F44074CA6843
:1045B00022434C6922F08002224302608A68C26270
:1045C0000A688262A84201D0984201D10969016358
:1045D00001214161BDE8F08100000140000400407C
:1045E00000080040000C0040000401400040014071
:1045F000004401400048014000180040001C0040F9
:104600000020004010B501F01F0101238B40046A17
:104610009C430462036A8A401343036210BD10B5D1
:1046200001F01F0104238B40046A9C430462036A67
:104630008A401343036210BDF0B5026A22F0010202
:104640000262026A4368846924F0700424F003055E
:104650000C682C4322F002058A682A430E4E0F4F45
:10466000B04201D0B84205D122F00805CA682A43F9
:1046700022F00402B04201D0B84207D123F4807383
:1046800023F400734D691D438B692B4343608461A0
:10469000496841630262F0BD00000140000401402E
:1046A000F0B5026A22F010020262036A426884696D
:1046B00024F4E04424F440740D6844EA052423F013
:1046C00020038D6843EA0513104D114EA84201D016
:1046D000B04206D123F08003CF6843EA071323F0EA
:1046E0004003A84201D0B04209D122F4806222F4F2
:1046F00000624D6942EA85028D6942EA85024260A4
:104700008461496881630362F0BD000000000140DC
:1047100000040140F0B5026A22F480720262026A6B
:104720004368C46924F0700424F003050C682C432A
:1047300022F400728D6842EA0522104D104EA84204
:1047400001D0B04206D122F40062CF6842EA0722CB
:1047500022F48062A84201D0B04209D123F48053F0
:1047600023F400534D6943EA05138D6943EA0513A9
:104770004360C4614968C1630262F0BD000001404A
:104780000004014030B5026A22F480520262046AD9
:104790004268C36923F4E04323F440730D6843EA9D
:1047A000052324F400548D6844EA0534084DA842DA
:1047B00002D0084DA84204D122F480424D6942EA59
:1047C00085124260C36149680164046230BD000023
:1047D0000000014000040140FCF798BA04F05CBB03
:1047E00007F08CB8FFF7C4BC06F06CBF03F0EABE5C
:1047F000FFF73EB810B504F077FCBDE8104010217B
:104800000148FDF7ACB900000000024005F044BDCE
:1048100010B5012240F201111046FEF74DFC06488A
:1048200090F8D610002906D0002180F8D610BDE8F7
:104830001040FEF7A7BB10BD5410002010B5012298
:1048400040F201110220FEF737FC064890F8D6101E
:10485000002906D0002180F8D610BDE81040FEF7F0
:1048600091BB10BD5410002010B5806B0021C18594
:10487000C184FEF713F910BD0168CA6822F4907272
:10488000CA6001684A6922F001024A61016B01298C
:1048900004D10168CA6822F01002CA60202180F8A1
:1048A0003E1000210163704710B50168CA6822F00C
:1048B0004002CA60202180F83D10FEF762FB002014
:1048C00010BD10B5044694F83E00222801D0022005
:1048D00010BDA1684FF48052914201D1206920B1EE
:1048E000A06A91421DD051B10BE0A06A21684968CD
:1048F000C1F308010180A06A801CA06209E021695F
:1049000079B12168496801F07F010170A06A401CFB
:10491000A062E08D401E0004000CE08505D0002060
:1049200010BD216849680170F0E72068C16821F076
:104930002001C1602068C16821F48071C1602068D5
:10494000416921F001014161202084F83E00206B83
:10495000012805D02046FEF77FFA0020206310BD15
:104960002068C16821F01001C160A18D2046FEF7CA
:1049700094F8F2E72DE9F041044620680169E26805
:1049800021F4405111430161A1682069E2690143AA
:104990006069104301432068C26849F20C639A437E
:1049A0000A43C26020684169A26921F44071114341
:1049B000416133492068884202D03249884202D19D
:1049C000FDF758FA01E0FDF745FAE16900231927E0
:1049D00064253226B1F5004F28D061688B0F8A001C
:1049E000A0FB0701FBF7EEFB0146B0FBF5F07A42B6
:1049F000504301EB800006EB0010B0FBF5F000F037
:104A0000F002B1FBF5F002EB0012B1FBF5F07B42D6
:104A1000584301EB800006EB0010B0FBF5F0216875
:104A200000F00F0010448860BDE8F08161684A180A
:104A3000A0FB07015B41FBF7C5FB0146B0FBF5F0AE
:104A40000201B1FBF5F06FF01803584301EB800051
:104A500006EBC000B0FBF5F000F0F80002EB4002FE
:104A6000B1FBF5F0584301EB800006EBC000B0FB52
:104A7000F5F0216800F0070010448860D4E70000DA
:104A8000001001400014014081628285C28500212E
:104A90000164222280F83E2080F83C100168CA6838
:104AA00042F48072CA6001684A6942F001024A61B8
:104AB0000068C16841F02001C1600020704790F893
:104AC0003D10212901D0022070478168B1F5805F37
:104AD00001D1016961B1016A4A1C02620268097868
:104AE0005160C18C491E0904090CC1840AD013E02D
:104AF000016A02680988C1F308015160016A891CD2
:104B00000162EEE70168CA6822F08002CA600068AC
:104B1000C16841F04001C160002070472DE9F041BB
:104B200004460E4617469846069D1DE0681C1BD09D
:104B30002DB1FDF729F8A0EB0800A84214D9206890
:104B4000C16821F4D071C1602068416921F0010180
:104B50004161202084F83D0084F83E00002084F864
:104B60003C000320BDE8F0812068006836EA0000C0
:104B700004D00020B842D9D00020F3E70120F9E7A3
:104B80000148FDF78DBF00000C02002008B5134856
:104B900000680068C04380061ED44FF47A73012277
:104BA00069460E48FEF7DCF80C48543090F868105F
:104BB000012911D090F866109DF800304A1C01447C
:104BC00080F866204B70002180F8651090F8661020
:104BD000012901D180F8671008BD000000100020F5
:104BE00008B5134800680068C04380061ED44FF41F
:104BF0007A73012269460E48FEF7B2F80C48443039
:104C000090F86810012911D090F866109DF80030D6
:104C10004A1C014480F866204B70002180F8651022
:104C200090F86610012901D180F8671008BD0000D6
:104C30004C0E0020FEE703460846984202DB9042F5
:104C400000DC0020704703460846984201DA184607
:104C500070479042FCDD10467047F0EE401AB0EE0F
:104C6000600AB4EEE10AF1EE10FA02D2B0EE610A87
:104C70007047B4EEC10AF1EE10FAF9DDB0EE410A68
:104C8000704700000FB4054B10B503A9044A029801
:104C900002F000F910BC5DF814FB0000E986000882
:104CA0000C00002003B401984100009850EAC12094
:104CB00018BF04204A0D18BF40F0010040F2FF72F7
:104CC000B2EB515F08BF40F00200012808BF052089
:104CD00002B070474100080218BF04200A0E18BF36
:104CE00040F001004FF07F4232EA010108BF40F07E
:104CF0000200012808BF052070470907090E002897
:104D000004DB00F1E02080F80014704700F00F0091
:104D100000F1E02080F8141D704700000000000042
:104D200070B5C1482DED020B2DED0E8B82B0119D9B
:104D300025F000449FEDBEDB9FEDBFEB84423EDBE0
:104D4000A4F140511098A1F17F6108430FD0BC48F5
:104D5000844202DC28D1109830B39DED100B02B0D4
:104D6000BDEC0E8B02B0BDE8704002F025B89DEDA1
:104D7000100B53EC1D2B51EC100BFBF74BFB9DED77
:104D8000100B41EC180B53EC1E2B51EC100BFBF7E6
:104D900041FB53EC182BFBF796FA41EC100B02B0D9
:104DA000BDEC0E8B02B070BD012002F06DF802B0B8
:104DB000BDEC0E8B02B0BDE8704002F011B8A14806
:104DC0009FEDA18B844256DA9DED100BB4F1795F13
:104DD0000ADA51EC100BFFF765FF042808BF02F058
:104DE0001FF89DED100BDAE753EC102B51EC100B74
:104DF000FBF710FB41EC190B95480621B0EE490A70
:104E0000F0EE690A784401F0ABFE53EC192B51EC3B
:104E1000100BFBF7FFFA41EC1A0B8E48B0EE490A73
:104E2000F0EE690A0421784401F09AFE53EC192B44
:104E300051EC100BFBF7EEFA53EC182BFBF743FA8F
:104E400041EC100B51EC1A0B53EC102BFBF754FBFD
:104E5000CDE900019DED000B53EC102B9DED100BE7
:104E600051EC100BFBF7D6FA9DED101B53EC112BF8
:104E7000FBF729FAD2E09DED100B51EC100B03F07B
:104E8000D9FB53EC182BFBF7C2FA9FED730BCDE95E
:104E9000000153EC102B9DED000B51EC100BFBF7B8
:104EA000B9FA41EC190B6E480621B0EE490AF0EE52
:104EB000690A784401F054FE53EC192B51EC100BA5
:104EC000FBF7A8FA41EC1B0B6648B0EE490AF0EE7E
:104ED000690A0421784401F043FE53EC192B51EC8C
:104EE000100BFBF797FA53EC182BFBF7ECF941EC9E
:104EF0001C0B51EC190B06F001FB41EC180B5A4846
:104F00009FED5BABA04222DC53EC1C2B51EC1B0B46
:104F1000FBF7F2FACDE900019DED000B51EC180B07
:104F200053EC102BFBF776FA53EC182BFBF7CBF96D
:104F300053EC1A2BFBF76EFA53EC1D2BFBF764FABC
:104F400053EC1E2BFBF763FA41EC100B5FE08DED89
:104F5000008B002000909DED000B51EC180B53ECE2
:104F6000102BFBF7B0F99DED000B41EC1E0B53EC41
:104F7000102B51EC100BFBF74DFA53EC192BFBF7F0
:104F800046FA53EC1E2BFBF7B7FA41EC190B53EC26
:104F90001C2B51EC1B0BFBF7AFFA41EC1B0B53EC3A
:104FA0001A2B51EC190BFBF735FA53EC1D2BFBF7C1
:104FB0002EFA41EC190B53EC1A2B51EC180BFBF7A2
:104FC00029FA53EC1B2BFBF725FA53EC192BFBF7B3
:104FD0001BFA9DED000B41EC180B53EC1A2B51EC16
:104FE000100BFBF717FA9FED249B53EC192BFBF7E3
:104FF0000EFA41EC100B51EC180B53EC102BFBF795
:1050000003FA53EC192BFBF702FA41EC100B002DBD
:105010003FF7C5AE51EC100B81F0004141EC100B95
:10502000BDE60000000000000000F03F00000000AE
:10503000075C143326A6913C182D4454FB21F93FFC
:105040000000F07F0000E03F000000000000F03FA3
:10505000208700002E870000000000000000E03FD5
:1050600072860000808600003333EF3F00000000AE
:105070000000000000000040182D4454FB21E93FCF
:1050800070B59B482DED020B2DED068B079D25F08D
:105090000044A04218DC9748844202DC0AD10698FA
:1050A00040B19DED060BBDEC068B02B0BDE8704033
:1050B00001F082BE002DCCBF9FED8F0B9FED900BBA
:1050C000BDEC068B02B070BD8F48A04215DD8F4845
:1050D000A042D8BF4FF0FF3458DD9DED060B51ECD8
:1050E000100BFFF7DFFD042808BF01F099FE9DEDCE
:1050F000060BBDEC068B02B070BD9DED060B51ECAE
:10510000100B03F097FACDE9060181489FED828BE1
:10511000A0423CDD8248A0421FDD00249FED82AB0F
:105120009DED060B53EC1A2B51EC100BFBF7CBF853
:105130009DED060B41EC190B53EC1A2B51EC100BA7
:10514000FBF768F953EC182BFBF75EF953EC192BBE
:10515000FBF7D2F9CDE9060149E09DED060B0124EC
:1051600053EC182B51EC100BFBF7ADF89DED060B33
:1051700041EC190B53EC182B51EC100BFBF744F9D5
:1051800053EC192BFBF7B8F9CDE906012FE068487D
:10519000A0421FDD02249FED689B9DED060B53ECA2
:1051A000192B51EC100BFBF735F953EC182BFBF7CF
:1051B0008AF89DED060B41EC180B53EC192B51ECC2
:1051C000100BFBF721F953EC182BFBF795F9CDE900
:1051D00006010CE09DED060B032453EC102B9FED14
:1051E000580B51EC100BFBF787F9CDE906019DED4B
:1051F000060B53EC102B51EC100BFBF70BF941ECA9
:10520000180B53EC182BFBF705F941EC190B4E4822
:105210000621B0EE490AF0EE690A784401F0A0FCDC
:1052200053EC182B51EC100BFBF7F4F841EC180B76
:105230004648B0EE490AF0EE690A0521784401F0CB
:105240008FFC53EC192B51EC100BFBF7E3F841ECFE
:10525000100B51EC180B53EC102B002C0EDAFBF753
:1052600032F89DED061B53EC112BFBF7D3F89DEDA7
:10527000061B53EC112BFBF7CAF835E0FBF723F8BC
:105280009DED061B53EC112BFBF7C4F841EC100B02
:105290002F48784400EBC40090ED001B51EC100B3C
:1052A00053EC112BFBF7B0F89DED061B53EC112BC3
:1052B000FBF7AAF841EC100B2648784400EBC40039
:1052C00090ED001B51EC100B53EC112BFBF79FF8EA
:1052D00041EC100B002DA2BFBDEC068B02B070BDDF
:1052E00051EC100B81F0004141EC100B01E7000084
:1052F000000010440000F07F182D4454FB21F93FBA
:10530000182D4454FB21F9BF0000DC3F0000203E73
:105310000000F33F00000000000000000000F03F2C
:105320000000E63F00000000000000000000004018
:105330000080034000000000000000000000F83F73
:10534000000000000000F0BF7A84000030840000FC
:10535000BA8300007283000070B56F4E2DED040B10
:105360002DED048B82B0DDF824C0DDE907235C421B
:105370002CF000411C4341EAD474069D22F0004009
:10538000B44205D86C422C4340EAD474B4420BD9E1
:105390009DED081B9DED060B02B0BDEC048B04B027
:1053A000BDE8704001F012BDACF14054A4F17F643F
:1053B0001C430BD0022404EAAC7444EAD2740543C3
:1053C0009FED578B9FED582B07D015E09DED060BF9
:1053D00051EC100B02F0CCF942E0002C11BF012C73
:1053E0009DED060B02B0BDEC048B04BF04B070BD94
:1053F000022C38D0032C3BD00B439FED4D1B9FED6F
:105400004E0B0AD0B14218D1B04209D121F08041EF
:1054100020F08040099107900FE0002A15DA10E093
:10542000474B7B44002C08BF93ED000B0DD0012CA3
:1054300010D0022C17D0032C1AD0B0421DD1002A54
:1054400003DAB0EE410AF0EE610A02B0BDEC048B63
:1054500004B070BD93ED000B51EC100B81F00041D6
:1054600041EC100BF1E7B0EE480AF0EE680AECE709
:10547000B0EE420AF0EE620AE7E7401A00159FED2F
:10548000329B3C28C8BF8DED000B17DCBCF1000F30
:10549000BCBF10F13C0F8DED009B0FDB9DED080BA9
:1054A00053EC102B9DED060B51EC100BFBF724F881
:1054B00003F0C0F802F05CF9CDE90001B4B1012CB1
:1054C00010D0022C9FED220B53EC102B9DED000B06
:1054D00051EC100B19D0FAF797FF53EC182BFAF791
:1054E00093FFBDE7019880F0004001909DED000B17
:1054F00053EC192B51EC100BFBF7D6F804BF02202C
:1055000001F0C2FC9DED000B9FE7FAF77DFF53EC25
:10551000182BFAF77CFFA3E70000F07F00000000E3
:10552000182D4454FB210940182D4454FB2109C077
:10553000182D4454FB21F9BF182D4454FB21F93F89
:10554000D282000000000000000000000000000007
:10555000075C143326A6A13C10B52F499FED2C1BE8
:105560002DED020B84B0059820F000408842D8BF92
:105570009DED040B2DDD2949884209D1049840B9DD
:105580004FF0010001F080FC01F02AFC06B010BDD4
:1055900005DB9DED040B01F00FFC06B010BD684665
:1055A0009DED040B01F008F810F0030004BF9DED21
:1055B000021B9DED000B0CD001280ED09DED021BAF
:1055C0009DED000B022817D0012001F045FB06B02D
:1055D00010BD01F00DFA06B010BD9DED021B9DED52
:1055E000000B012001F038FB51EC100B81F0004161
:1055F00006B041EC100B10BD01F0FAF951EC100BA4
:1056000081F0004106B041EC100B10BD000000001D
:105610000000000000000000FB21E93F0000F07FD7
:1056200010B510EE104A4FF019406849002200EB07
:1056300044002DED028B884257D8DFED650A14F047
:10564000004F60EE200A14BFBEEE001AB6EE001A3C
:1056500071EE200AFDEEE00A10EE900A00EE900ACC
:10566000F8EEE00A9FED5B1A00EEC10A9FED5A1AB0
:1056700000EEC10ADFED590A9FED591A00EE201A1B
:10568000DFED580A40EE010A9FED571A574B00F024
:10569000030100EE201A21EE000A7B4403EB810394
:1056A000D3ED000A524B7B4403EB810393ED001AC8
:1056B000504B41EE000A7B4403EB8101801091EDD9
:1056C000000A70EE800AEABB00EE100AB8EEC01ABB
:1056D000DFED491A9FED490ABDEC028B01EE210A6C
:1056E000BCEEC00A20EE200A10BD4FF0FF40A043E0
:1056F0001BD04FF0CE40B0EB440F82BFB7EE000A94
:10570000BDEC028B10BD3E48B0EB440F28BF012218
:1057100093D2022001F0B8FB14F0004F15D0BDEC7D
:10572000028BBDE8104001F097BB14F5000F02BFDB
:105730009FED340ABDEC028B10BDBDEC028BBDE8C1
:10574000104000E007E001F07BBBBDEC028BBDE840
:10575000104001F079BB00EBD07359104FF07E522E
:1057600002EBC15100EE101AA0EB630002EBC05037
:1057700060EE200A00EE100A20EE208A18EE100AD1
:1057800088B118EE100AB0F1FF4F15D018EE100ACC
:10579000FFF7A0FA042808BF01F05EFBB0EE480A4C
:1057A000BDEC028B10BD022001F06EFBBDEC028B44
:1057B000BDE8104001F050BB022001F065FBBDECDC
:1057C000028BBDE8104001F03FBB00000000501EFE
:1057D0003BAAB8400070313EF4FD053712BB2A3DAC
:1057E00012BB2A3EFFFFFF3EFFFF7F3FEA7E000025
:1057F000EE7E0000BE7E00000000004B00007E4EEA
:105800000000A085000000002DED020B019820F0A3
:10581000004001909DED000B02B0704700000000B9
:105820002DE9F04D2DED040B2DED0E8B96B0DDE93D
:105830002550279CDDF890A025F0004624F0004874
:10584000BAF1000F14BF0121002101EB4502FC4910
:1058500053184A1093422AD3002814BF012300236F
:1058600003EB44030B44F7498B4220D358EA000171
:105870009FEDF59B76D0DFF8D8B35D4503D1BAF143
:10588000000F05D188E0BAF1000F08BF002100D059
:10589000012101EB450111F5001F08D8002814BFB4
:1058A0000121002101EB440111F5001F0BD99DEDF1
:1058B000261B9DED240B16B0BDEC0E8B04B0BDE88D
:1058C000F04D01F083BA0027002DBCBFE1498845A7
:1058D00021DAE1498845A8BF02271CDAC3451ADC52
:1058E000DE4901EB2851142908DDC1F1340220FA08
:1058F00002F101FA02F282420DD108E058B9C1F179
:10590000140228FA02F101FA02F2424503D101F031
:105910000101C1F1020756EA0A0124D1002C22DA62
:10592000002D18BF022F01D0012F0AD0022001F054
:10593000ABFA16B0BDEC0E8B04B0BDE8F04D01F033
:1059400023BA022001F0A0FA01F01EFA51EC100B6C
:1059500081F0004141EC100B16B0BDEC0E8B04B091
:10596000BDE8F08D18E09FEDBEAB9FEDBF8B00282A
:1059700071D1B848804522D105F1804010F58010E2
:1059800008BFBAF1000F07D0B3450ADC002CA8BF4E
:105990009DED260BE0DA0DE0B0EE490AF0EE690A63
:1059A000DAE7002C06DA9DED260B51EC100B81F0A6
:1059B00000416FE0AE48784490ED000BCCE7D8454D
:1059C0004DD1002C48DA2EB186423AD1BAF1000FFF
:1059D00042D126E0BAF1000F13D0022001F054FAB0
:1059E00001F00EFA8DED020B9DED240B8DED000BF9
:1059F00010EE900A039961F31E0003909DED020BD7
:105A0000AAE78DED02AB9DED240B1AEE901A10EE75
:105A1000900A8DED000B61F31E0003909DED020BCB
:105A20009AE78DED028B9DED240B18EE901A10EE87
:105A3000900A8DED000B61F31E0003909DED020BAB
:105A40008AE709DA9DED240B51EC190B53EC102B6E
:105A5000FAF752FD1EE020E09DED240B7CE7864224
:105A60001BDAB4F1804F0DD0A4F10050B0F1FF501B
:105A700013D1002D11DB9DED240B51EC100B05F023
:105A80003DFD07E09DED240B53EC102B51EC100B6A
:105A900000F0C2BC41EC100B5EE79DED240B51EC15
:105AA000100B02F0C7FDBAF1000FCDE90E0142D193
:105AB0009FED710B46B3A6F1E040B0F17F600CD0D2
:105AC0005E4538D1002D00DAA7B3022F0CBF0120AC
:105AD0004FF0FF30FAF77FFDDCE7002D01DD002CF1
